:03000000020800F3
:0C080000787FE4F6D8FD758109020847F6
:1009060053797374656D2052656164792E2E2E00BD
:100916002046616E204F4E002046616E204F4646AF
:1009260000204C69676874204F4E00204C69676848
:1009360074204F464600205456204F4E00205456F1
:05094600204F464600B1
:0309B60001080035
:07094B0012098B7F327E00D0
:10095200E4FDFCC3ED9FEC9E5015E4FBFA0BBB00DB
:0F096200010ABA04F8BBFBF50DBD00010C80E4DF
:010971002263
:0809AE008F993099FDC29922D6
:10098B00120972FF600C1209AE740129F9E43AFAEC
:07099B0080EE7F0D0209AEA2
:0C09A200758920759850758DFDD28E224D
:10088C00E4F5A01209A27BFF7A09790612094B3014
:10089C0098FD859908850809C298E509B4310AD2F2
:1008AC00A07BFF7A0979168049E509B4320AC2A007
:1008BC007BFF7A09791E803AE509B4330AD2A17B11
:1008CC00FF7A097927802BE509B4340AC2A17BFF92
:1008DC007A097931801CE509B4350AD2A27BFF7AFA
:1008EC0009793C800DE509B4360BC2A27BFF7A096D
:0A08FC00794312094BE4F5098095D9
:10080C0002088CE493A3F8E493A34003F68001F26E
:10081C0008DFF48029E493A3F85407240CC8C333ED
:10082C00C4540F4420C8834004F456800146F6DFBC
:10083C00E4800B01020408102040809009B6E47E8D
:10084C00019360BCA3FF543F30E509541FFEE493B1
:10085C00A360010ECF54C025E060A840B8E493A378
:10086C00FAE493A3F8E493A3C8C582C8CAC583CAA3
:10087C00F0A3C8C582C8CAC583CADFE9DEE780BE5B
:0109B900003D
:10097200BB010689828A83E0225002E722BBFE0283
:09098200E32289828A83E49322B6
:00000001FF
